S01E000054756E696E675F41455F434150315F533341375F53542E73726563E5
S1130000F8850020957E0000D1790000917E0000E3
S1130010917E0000917E0000917E000000000000AF
S1130020000000000000000000000000917E0000BD
S1130030917E000000000000BDA8000021AA00007D
S1130040ED610000E1610000D56100005509000088
S1130050FFFFFFFFFFFFFFFFFFFFFFFFFFFFFFFFAC
S1130060FFFFFFFFFFFFFFFFFFFFFFFFFFFFFFFF9C
S1130070FFFFFFFFFFFFFFFFFFFFFFFFFFFFFFFF8C
S1130080FFFFFFFFFFFFFFFFFFFFFFFFFFFFFFFF7C
S1130400FFFFFFFFDF8FFFFFFCFF0F00FFFF0F0069
S1130410FCFF0F00FFFF0F00FCFF0F00FFFF0F00AA
S1130420FFFFFFFFFFFFFFFFFFFFFFFFFFFFFFFFD8
S1130430FFFFFFFFFFFFFFFFFFFFFFFFFFFFFFFFC8
S1130440FFFFFFFFFFFFFFFFFFFFFFFFFFFFFFFFB8
S1130450FFFFFFFFFFFFFFFFFFFFFFFFFFFFFFFFA8
S1130460FFFFFFFFFFFFFFFFFFFFFFFFFFFFFFFF98
S1130470FFFFFFFFFFFFFFFFFFFFFFFFFFFFFFFF88
S1130480FFFFFFFFFFFFFFFFFFFFFFFFFFFFFFFF78
S1130490FFFFFFFFFFFFFFFFFFFFFFFFFFFFFFFF68
S11304A0FFFFFFFFFFFFFFFFFFFFFFFFFFFFFFFF58
S11304B0FFFFFFFFFFFFFFFFFFFFFFFFFFFFFFFF48
S11304C0FFFFFFFFFFFFFFFFFFFFFFFFFFFFFFFF38
S11304D0FFFFFFFFFFFFFFFFFFFFFFFFFFFFFFFF28
S11304E0FFFFFFFFFFFFFFFFFFFFFFFFFFFFFFFF18
S11304F0FFFFFFFFFFFFFFFFFFFFFFFFFFFFFFFF08
S1130500BC5A002084001700C45A0020830017102E
S1130510C05A002082001720B81200206100332046
S1130520200000002F0000002F0001000C0001003B
S1130530110000003000000024000000240001002D
S11305402500000025000100130000001700000032
S1130550230000002100000021000100070000002A
S1130560070001000700020007000300120000005A
S1130570080000000B000000040000002B00000035
S11305802B0001002B0002002B0003002B000400B1
S11305902B0005002B0006002B0007002B00080091
S11305A02B0009000600000006000A0006000B00EC
S11305B006000C0006000D0006000E0006000F00E9
S11305C00600010006000200060003000600040005
S11305D006000500060006000600070006000800E5
S11305E006000900150000001500010015000200B6
S11305F0310000002A000000100000000301000088
S113060003000000030001000F0000000D000000C3
S11306102D0000002C0000002C0001002C00020022
S11306202C00030032000000280000001800000025
S11306301400000014000100140002001400030060
S11306401400040014000900340000001900000024
S113065016000000160001003600000036000100FC
S113066022000000330000002900000010B5054CF2
S1130670237833B9044B13B10448AFF3008001234A
S1130680237010BD780900200000000090D5000000
S1130690084B10B51BB108480849AFF3008008485F
S11306A0036803B910BD074B002BFBD0BDE8104015
S11306B0184700BF0000000090D500007C0900200E
S11306C0BC0600200000000040B1012305210422E3
S11306D001704370C370827000207047012070471E
S11306E058B151B12DE9F04F324B04689C4283B0AC
S11306F005D0072003B0BDE8F08F01207047D0F883
S11307008830002B49D0D0F88C60044617468846C0
S1130710002E46D0D0F89010964228BF16460144C9
S11307203246943140460BF00BFBD4F88C20D4F8BD
S11307309030921B3344C4F88C20C4F89030BE1B14
S1130740AEB307F03F0B04F19409BBF1000F4FF077
S11307500003019349460CBF3A468022D4F888002E
S113076001AB0AF0EFFB82464946B81BBAF1000F11
S113077013D1019D40442A467DB1B54213D9AD1B26
S1130780B81B4044C4F88C50C4F8906032460BF057
S1130790D7FA504603B0BDE8F08F642003B0BDE83B
S11307A0F08F1646CCE70BF0CBFA761BCDD10020A8
S11307B0A0E700BF4D43585590B338B50268194BB4
S11307C09A421AD003F17D4303F56D03C26E03F61A
S11307D0F4139A42044600F16C0505D028461249E8
S11307E000221C2309F07AF828464FF47A7109F0A4
S11307F0C9F8054618B1142038BD082038BD201D9D
S11308000A490122342308F09FFF04F13800084903
S11308100122342308F098FF024B2360284638BD98
S1130820012070474D43585598C90000ACC90000D9
S1130830C0C9000038B110B50446043008F0DCFF2C
S113084018B1642010BD0120704704F1380008F08D
S1130850D3FF0028F5D110BD48B141B1F0B5124C19
S11308600568A54283B004D0072003B0F0BD012081
S11308707047D0F888605EB102AF002347F8043DAA
S113088004463B4630460D460AF0CCFB024610B106
S1130890642003B0F0BDD4F8880029463B460AF032
S11308A0C1FB0028F4D1E0E74D43585580B138B579
S11308B0134B04689C4201D0072038BD04461546FA
S11308C041B102290ED00139012911D9002038BDC6
S11308D0012070470430114608F0A4FF08B1142029
S11308E038BD38BD0430114608F09CFF0028F6D10D
S11308F004F13800294608F095FF0028EFD138BDEF
S11309004D43585578B1124B02689A4201D00720E2
S1130910704710B5044641B102290DD001390129AF
S11309200FD9002010BD01207047043008F0A6FF45
S113093008B1142010BD10BD043008F09FFF00283A
S1130940F7D104F1380008F099FF0028F1D110BD67
S11309504D43585510B5EFF30380103840B207F0FB
S11309608FF90F4B1B685C698CB11B690D49D3F877
S113097094208A4218BF002004D10CE0D3F89420BC
S11309808A4209D00130A04203F1AC03F6D1BDE89C
S1130990104000F091BE0020BDE8104001F036BACE
S11309A0EC65002000000940F8B50F4630210446EC
S11309B0154600F0D1FF30214FF4C06206462046B0
S11309C000F0C2FF20463A2100F0C6FF012DBB68AB
S11309D00FD001229A4020EA0202204692B23A2124
S11309E000F0C4FF2046B2B23021BDE8F84000F068
S11309F0BDBF9D4040EA0502EFE700BFF8B50F46D2
S1130A0030210446154600F0A7FF30214FF4E06280
S1130A100646204600F098FF2046382100F09CFF4F
S1130A20012DBB680FD001229A4020EA0202204621
S1130A3092B2382100F09AFF2046B2B23021BDE8CC
S1130A40F84000F093BF9D4040EA0502EFE700BF85
S1130A5038B505460C4600F0B7FA831E032B03D8BD
S1130A60DFE803F0150E0E0D28462146002200F0A3
S1130A7015F8284621460022FFF796FFFF2038BDCF
S1130A8028462146002200F009F8002038BD2846F7
S1130A902146012200F002F8002038BDF8B50F46C7
S1130AA030210446154600F057FF30214FF4E06230
S1130AB00646204600F048FF2046362100F04CFF51
S1130AC0012DBB680FD001229A4020EA0202204681
S1130AD092B2362100F04AFF2046B2B23021BDE87E
S1130AE0F84000F043BF9D4040EA0502EFE700BF35
S1130AF0E9B138B5CB68012B0C4605460DD9022B5C
S1130B0017D0284621460022FFF7C8FF2846214671
S1130B100022FFF749FFFF2038BD00F02FFC831EA1
S1130B20032BEED8DFE803F01408080238BDFF20D9
S1130B30704700F073FBF2E7284621460022FFF7D6
S1130B40ADFF284621460122FFF72EFF002038BDC5
S1130B50284621460122FFF7A1FF002038BD00BF2F
S1130B60CB68012B70B50C4605462FD01ED3022B43
S1130B700BD004240021284600F0EEFE2846042170
S1130B8000F0EAFE013CF5D170BD2021164600F0CC
S1130B90E3FEA26820F4426020F00F0032430243D7
S1130BA092B22846202100F0E1FEE2E7282100F07D
S1130BB0D3FEA36820F4406020F00F0040EA030253
S1130BC092B22846282100F0D1FED2E72C2100F071
S1130BD0C3FEA36820F4406020F00F0040EA030243
S1130BE092B228462C2100F0C1FEC2E738B58B68CA
S1130BF00C463BB95C2100F0AFFEC30510D54FF4A1
S1130C00807038BD054664210F2200F09DFE284601
S1130C106421228900F0AAFE28465C2100F09CFE93
S1130C20A36AD86938BD00BF2DE9F0474D692C236C
S1130C3025F0800503FB050304465A68D60702D550
S1130C401420BDE8F0870F46194642F0010241F82E
S1130C50042FB960DF62BA6902F00302022A6ED07F
S1130C60032A05D0002A00F09380FF20BDE8F08716
S1130C7000F5E8794FF006080426204664211FFA9F
S1130C8088F200F073FE2046682159F804AF00F0A2
S1130C9063FEC0F3813050EA0A0300F0938001360A
S1130CA0072E08F10108E8D14FF000082C2303FBBC
S1130CB0054300225E629A624FF400462C2202FB36
S1130CC005420832C2F804807B691B066CD50023F8
S1130CD093602C2303FB0545083569687B6937312C
S1130CE013F0800F4FF000024FEA4101204614BF79
S1130CF04FF01009914600F033FEEFF3108872B6FE
S1130D006421AA88204600F031FE7B6903F00F02BB
S1130D1042F08002324349EA02022046682100F090
S1130D2025FE2046BA8B6C2100F020FE88F3108843
S1130D302046394600F0A4F80020BDE8F0871646A6
S1130D4000F5DE794FF00108204664211FFA88F28D
S1130D5000F00CFE2046682159F804AF00F0FCFDB9
S1130D60C0F3813050EA0A030CD12C2303FB054362
S1130D7008214FEAC802C9F800504FF4804699622E
S1130D805A629BE7062E12D0013608F10108DBE710
S1130D905A62F969DA600226890999621E61BA8B7E
S1130DA05E2100F0E3FDC3E70123936091E72C2368
S1130DB003FB05430022082199625A6290464FF4CE
S1130DC080467BE704EB8803C3F8BC516EE700BFA1
S1130DD0F8B58C6864212289054600F0C7FDA16836
S1130DE000293ED001F16E0305EB83030026373161
S1130DF049005E603246284600F0B2FDA368012730
S1130E0007FA03F292B228464A2100F09DFDA36836
S1130E1007FA03F292B22846462100F095FDA36832
S1130E2007FA03F292B22846482100F08DFD2846C5
S1130E3021463246FFF732FE284621463246FFF766
S1130E40B3FD284621463246FFF7D8FD2846222125
S1130E504FF4804200F08AFD28466821228900F080
S1130E6085FD00202060F8BD896821B13731490033
S1130E70032200F069BD6021032200F065BD00BFBC
S1130E8071B338B58D68A9680446F1B137314900AA
S1130E90032200F059FDA9683731490020464FF478
S1130EA0807200F05DFD204622214FF4804200F064
S1130EB05DFD204622214FF4804200F045FD2B6861
S1130EC023F004032B60002038BD6021032200F0CE
S1130ED03BFD204660214FF4807200F041FDEEE7B7
S1130EE01420704799B110B58C68A16851B137319D
S1130EF04900022200F034FD236843F00403236018
S1130F00002010BD6021022200F02AFDF4E7142025
S1130F10704700BF2C2303FB01014868C3074CBF83
S1130F20C0F38000FF20704738B50C460546FFF734
S1130F3017FEE368012B0FD009D3022B05D12846F5
S1130F40222100F009FD830400D4FF2038BD284687
S1130F502A2100F001FDF6E728462E2100F0FCFCD2
S1130F60F1E700BF4368CBB110B4027B042A83B01D
S1130F7015D00A88002B92B201920CDD036801A9F6
S1130F80002211F8014B1C7090E818000132013363
S1130F9094420360F5DC03B05DF8044B70470A68C3
S1130FA00192002BF7DD036801A9002211F8014B1F
S1130FB01C7090E8180001320133A2420360F5DB93
S1130FC003B05DF8044BE9E72DE9F043CB68D0F8B2
S1130FD0E061012B87B00D4607465AD053D34FF03A
S1130FE0220814364FF02009384629460022FFF71C
S1130FF09BFFFF2802D107B0BDE8F083AA6AC0F3C3
S11310000B03D469AB61384629460393FFF72CFFE1
S11310102B69039A934242D3002A4ED0B2FBF4F3D5
S113102004FB1324002C134614BF04240224D7F811
S1131030F011EA69029211B1E968012953D9D20782
S11310403DD45D08A3EB45034FF0020E49463846F4
S11310504FF48062049503938DF814E000F080FC53
S1131060049D5DB102982B460246318822F8021B8A
S1131070013BFAD100EB450002900493314602A8EB
S1131080FFF770FF0FE04FF02A0818364FF02809D9
S1131090AAE74FF02E081C364FF02C09A4E703935F
S11310A00724002BC3D1384641464FF4804200F058
S11310B05DFC204607B0BDE8F0830424F3E749460D
S11310C03846002200F04CFC039B002BEBD0029B23
S11310D032781A70029B039A0133013A0293039205
S11310E0002AF5D1DFE712F0010FD7F808223DD02E
S11310F001218DF81410D07804936FF305109BB27E
S1131100D070D38149463846002200F029FC049B64
S1131110002BB3D0D7F80832D7F8F021D9789568E6
S1131120DB891068029A4FF0010EC1F301118DE8BA
S113113002409BB231466D6AA847D7F8F0319A68ED
S1131140186813690021984702A90EC99DF8140074
S113115003FB00F31944D31A0291039397F81D3249
S1131160002BFBD0002387F81D3287E702218DF87E
S11311701410D0785B08012161F305109DB204932B
S1131180D581D070494638464FF4806200F0E8FBC0
S1131190BDE700BFF8B515460A68D2070C4629D446
S11311A04A685608A2EB460202276260A660194606
S11311B027734FF4806200F0D3FBA6685EB1206809
S11311C03346024632F8021B2980013BFAD100EB78
S11311D046002060A3606368F3B123681B7805F8B8
S11311E00139236862680133013A23606260002A8E
S11311F0F4D1F8BD1946002200F0B2FB636853B184
S113120023681B782B70236862680133013A2360DA
S11312106260002AF5D1F8BDF8BD00BF70B58B68D7
S113122084B00D46064633B92022FFF77DFEFF2821
S113123006D104B070BD0022FFF776FEFF28F8D077
S113124030462946FFF7D2FCAA6A2B69D2699A4232
S113125004461ED3019363B3B3FBF2F102FB1132D4
S1131260002A14BF0424032404A9EA6941F8102DB8
S1131270D6F8E0216B61143220233046FFF78AFF51
S11312803046222100F068FB030414D5204604B044
S113129070BDD6F8E021EB69686104A9304641F8D5
S11312A0103D143220230194FFF774FF022004B090
S11312B070BD0424D8E7304622214FF4004200F0E8
S11312C055FB2046B5E700BFFFF764BF43685BB139
S11312D003681B7801F80139036842680133013A55
S11312E003604260002AF4D1704700BFF0B40C6878
S11312F0E4070B4610D501241C73D0F8F4515C6844
S1131300EE789C606FF30516A4B21146EE70EC8182
S11313100022F0BC00F024BB02241C73D0F8F4516A
S11313205C68EE780121CC4061F30516A7B29C609D
S11313301146EE70EF814FF48062F0BC00F010BBF8
S1131340F0B5D0F8F4310446DD78D0F8EC01DB894F
S11313508668006883B00127C5F3011501970095DD
S11313609BB2756AA847D4F8EC319A681868136977
S1131370002103B0BDE8F040184700BF2DE9F04359
S1131380002285B005460E46FFF7CEFDFF2802D1A8
S113139005B0BDE8F08328463146FFF727FCB36A61
S11313A03769DB69BB422CD2019007460224F368FB
S11313B0D5F8E021002B37D1282302F118084FF08B
S11313C02A09D5F8EC21F16977610091002A4AD005
S11313D01A4669462846FFF789FF029B63BB6846A5
S11313E04146D5F8E021FFF771FF022C05D02846CD
S11313F0494600F0B1FA03040ED5204605B0BDE815
S1131400F0830197B7B1B7FBF3F203FB1273002B20
S113141014BF04240324CAE7284649464FF4004273
S113142000F09EFA2046B3E72C2302F11C084FF08B
S11314302E09C6E70424BAE7284600994246FFF776
S11314407FFF9DE807009DF80C3002FB03F318446E
S1131450CB1A8DE8090095F81C32002BFBD0002331
S113146085F81C32BBE7424628466946FFF72CFF45
S1131470BBE700BF10B50C464C2100F06DFAC0F379
S11314800A002060002010BD036A0BB95520704784
S1131490A1F10A03C06B0B2B1ED8DFE803F00E1D6D
S11314A0111D14171A061D060B080020704711465B
S11314B0FFF730BD1146FFF715BD1146FFF7DABF40
S11314C0114600F0CFBB1146FFF7AEBB1146FFF744
S11314D07FBC1146FFF7D4BC5420704738B5094B84
S11314E01C68D4F80C5100212846012200F038FA77
S11314F0284630214FF41F4200F032FA0123C4F889
S1131500F03038BDE865002070B53D4A82B0002354
S113151033219042009301938DF8001007D00220EC
S1131520014632220AF0D8FA322002B070BD684671
S113153006F0A2FB334B01AA1B69684602219847B7
S11315409DF804305AB212F1210F12D0002A4EDB5A
S113155002F1604101F561413020DBB281F8000302
S113156003F01F0352090121274801FA03F340F84D
S11315702230264B1D6800208023C5F8F430014634
S11315804FF408720AF050FB044670B31C4B204E13
S1131590C5F80C0105F1D002C5F800310021026044
S11315A0C0F8E0314FF48062C5F8086100F0D8F962
S11315B02046002100F0D0F94305F9D5204600214A
S11315C0012200F0C1F920460021402200F0BCF9BC
S11315D020460021102200F0C3F9204600210822F1
S11315E000F0B2F9002002B070BD12209DE7DBB21A
S11315F0084903F00F00014430200876B0E700BF2B
S113160000000940A0CA000000E100E0E8650020F5
S113161089140000FCEC00E000B583B0FFF774FF10
S113162018B90190FFF75AFF019803B05DF804FB65
S113163070B51F4D1F492C68D4F89433012B07BF94
S1131640D4F82003D4F82433D4F82803D4F82C3362
S1131650C4F81803C4F81C330E2204F506730AF008
S1131660A3FA4FF47A72D4F83032D4F88C12C4F856
S1131670C82204F1D00604F51472C4F89012C4F818
S11316808822C4F86C32C4F894320E21D4F808319C
S1131690304698472B68D3F8B43300210222C4F8AB
S11316A05412C4F8A4220BB101209847002070BD45
S11316B0E8650020700200202DE9F84FDFF88482ED
S11316C0D8F80090D9F80C414021204600F044F9A4
S11316D0430407460CD5D8F80030D3F8B4330BB123
S11316E005209847204640214BF6FF7200F03EF952
S11316F03E0400F1BF80FD0400F1A980780576D492
S1131700F90545D4BA0514D43B0501D4BDE8F88FD6
S1131710E16A07F00703303120464FF4006200F01D
S113172029F9204640214FF2FF72BDE8F84F00F03E
S11317301DB94821204600F00FF938218146204682
S113174000F00AF904F5DE76824604F5F278012504
S11317504FF02C0B04E0043646454FEA4505D3D040
S113176015EA090FF7D015EA0A0FF4D0EA43204628
S113177092B2482100F0FAF833680BFB0343204689
S1131780D96A4FF400723031002300F0F3F8E2E735
S11317904621204600F0E0F836218146204600F03C
S11317A0DBF804F5DE76824604F5F27801254FF085
S11317B02C0B04E0043646454FEA4505A2D015EA51
S11317C0090FF7D015EA0A0FF4D0EA43204692B283
S11317D0462100F0CBF833680BFB03432046D96A5B
S11317E04FF480723031002300F0C4F8E2E74A215C
S11317F0204600F0B1F83A218146204600F0ACF8CA
S113180004F5DE76824604F5F27801254FF02C0BC0
S113181005E0043646454FEA45053FF471AF15EA45
S1131820090FF6D015EA0A0FF3D0EA43204692B224
S11318304A2100F09BF833680BFB03432046D96A26
S11318404FF480623031002300F094F8E1E7204641
S113185040214EF6FF7200F089F807F07003102B58
S113186046D033D9202B5AD0302B32D10323C4F89D
S1131870E83143E72046402147F6FF7200F076F84E
S11318804021204600F068F8402100F08006204600
S113189000F062F805464021204605F0800500F07E
S11318A05BF8AE42ECD100F080008642E8D12EB164
S11318B020460021102200F053F81CE73146204650
S11318C0102200F041F809F0EFFE14E7002B3FF47A
S11318D015AFD8F80030D3F8B4330BB104209847CF
S11318E0D9F81432002B3FF409AF09F0DDFE05E707
S11318F02046082100F030F800F00700022815D037
S1131900032819D0012804D1D8F800300022C3F8E4
S11319109423FFF78DFE0123C9F81432EEE6204626
S1131920502100F019F8C9F80401E7E6D8F80030AE
S11319300122C3F89423ECE7D8F800300222C3F85C
S11319409423E6E7E8650020D0F8E0010B5A23EA87
S113195002020A52704700BFD0F8E031C85A7047FB
S1131960D0F8E0010B5A1A430A527047D0F8E0311C
S1131970CA5270472DE9F0478F68B2F5006F0C46E4
S1131980BD68064627D0B2F5807F05D0B2F5806FDA
S113199002D00020BDE8F087636A022B00F0CB8000
S11319A0E269002A40F0A080E76C012F00F0168164
S11319B0226230462946FEF7F7FFAB68002B40F061
S11319C021816A68012A00F04181A36A002BE0D0DA
S11319D020469847DDE7062BDBD04FF6F77240210F
S11319E0FFF7C4FF54213046FFF7B6FF81B204F17C
S11319F050000AF07FFA56213046FFF7ADFF81B25E
S1131A0004F152000AF076FA58213046FFF7A4FF99
S1131A1081B204F154000AF06DFA5A213046FFF7FE
S1131A209BFF04F1560981B248460AF063FA94F91F
S1131A30503000274FF00108BB42A7612762C4F869
S1131A400480C0F29080B4F85630002B00F08B80F4
S1131A504FF0020A4846C4F824A00AF045FAE368A5
S1131A6060612361304660210322A761FFF76CFFA8
S1131A70AB6808FA03F292B230464A21FFF764FFDA
S1131A80AB6808FA03F292B230464621FFF75CFFD6
S1131A90304622214FF48042FFF768FF30462A2166
S1131AA04FF48042FFF762FF304629463A46FFF77B
S1131AB057F8304629464246FEF7F0FF3046424684
S1131AC06021FFF74DFFC5F804A094F95030002BB6
S1131AD0C0F29580B4F85630002B00F09A800223AF
S1131AE06B600020BDE8F087FB692169E9619342DE
S1131AF028BF13466B61294630469846FEF7F8FF27
S1131B002F692169E369A269C8EB07074144C8EB5F
S1131B1003034244FF282F612161E361A2613FF482
S1131B2038AFA968002953D0373149003046012223
S1131B30FFF716FF2DE76369FA692B619342236966
S1131B4088BF2A61EB6130462946FEF781FF70B1F8
S1131B50AB68002B3FF41DAF2046232340F82C3BF9
S1131B600AF0C0F915E7204609F0A0FBADE7A96922
S1131B70E269A3692069521AE26162690B4408446C
S1131B8093422061A36102D0FB698B4253D00022AF
S1131B90226230462946FEF781FFAB6893BB6B682F
S1131BA0022B7FF4F6AE204609F080FBA36A0322E1
S1131BB06A600BB12046984700220323E261626108
S1131BC06362304660216B600522FFF7C9FEE0E6E0
S1131BD0304660210122FFF7C3FEDAE62A6130466F
S1131BE02946FEF785FFFF2806D0A968E1B93046EB
S1131BF03A466021FFF7B4FE0023E364C9E60123FB
S1131C006B60C6E62046022340F82C3B0AF06AF9D2
S1131C10BFE603226262E361636130466A60602169
S1131C200522FFF79DFEB4E63731490030463A46B7
S1131C30FFF796FEE0E7AB68002BC9D003F137014C
S1131C40490030460122FFF78BFEA2E603226262BE
S1131C50E361636130466A6060210522FFF780FE1C
S1131C60B3E600BF2DE9F0478F68D7F808900D461A
S1131C70D9F80810044600293ED160210322FFF759
S1131C8063FED9F80830012606FA03F292B2204620
S1131C904A21FFF759FED9F8083006FA03F292B246
S1131CA020464621FFF750FE6B6A032B55D0204691
S1131CB049460022FEF754FF204622214FF4804279
S1131CC0FFF754FE20462A214FF48042FFF74EFED0
S1131CD0494620463246FEF7E1FED9F8081019B30A
S1131CE03731490020463246FFF73AFED9F808302A
S1131CF01BBB0020BDE8F08737314900FFF72CFEFD
S1131D00420408D5D9F80810373149002046FFF7B6
S1131D1023FE4304F6D4D9F808103731490020468D
S1131D200322FFF711FEACE7204632466021FFF79D
S1131D3017FED9F80830002BDBD005F12C004FF04A
S1131D40FF310AF0CDF830B9286A20B92B68232B6B
S1131D500CBF23200020BDE8F087EB68D5F814A061
S1131D60FF69C9F81C30204649462022C9F810A052
S1131D70FEF7F6FE204622214FF48042FFF7F6FDDF
S1131D8020462A214FF48042FFF7F0FDEB68C9F8A2
S1131D901C3020464946FEF7ABFEFF281BD05745B2
S1131DA028BF5746B8462869D9F81070AA69EB6964
S1131DB0D9F80810C8EB070740444244C8EB0303B2
S1131DC0C9F810702861AA61EB6199B920463246BE
S1131DD06021FFF7C5FDD9F80830002B89D005F143
S1131DE02C004FF0FF310AF07BF80028B3D1286AA9
S1131DF0BDE8F0873731490020463246FFF7B0FD91
S1131E00D9F80830002B3FF474AFE8E72DE9F04728
S1131E10D34E33681B69AC2404FB0034636B53B9A1
S1131E20D4F8A850226BD5F8C430012A03F1010379
S1131E30C5F8C43001D0BDE8F0873021284600F051
S1131E40CFF932218046284600F0CAF940210746DE
S1131E50284600F0C5F900EA0800C5F8C800422188
S1131E60284600F0BDF9D5F8C83038409F04C5F8BD
S1131E70CC0000F16281000400F15381D5F8C83030
S1131E80590500F12081DA0500F1EF809B0500F18E
S1131E90C080D5F8CC301F0579D4D80463D4590454
S1131EA034D4DA0619D49B06C5D528464FF6DF721A
S1131EB0422100F09FF9D5F8D820D4F88C3030684E
S1131EC042F020020133C5F8D82000F51B70C4F895
S1131ED08C30BDE8F0470AF005B8284642214FF699
S1131EE0EF7200F087F9D5F8D820D4F88C30306838
S1131EF0013342F04002C5F8D82000F51B70C4F845
S1131F008C3009F0EFFFD5F8CC30CCE728464221DD
S1131F104BF6FF7200F06EF9D5F8D07007BB2B6951
S1131F20012B1DD0284632214FF4804200F052F993
S1131F30284632214FF4805200F056F9636C012197
S1131F400B4463642846C5F8D0103A465E2100F07D
S1131F504BF930684FF0FF33E430AB6109F0C2FF56
S1131F60D5F8CC309DE7284642214EF6FF7200F0AA
S1131F7041F9284642214FF2FF7200F03BF9D5F8AF
S1131F80D030012B00F0F180D5F8CC3087E728461B
S1131F9042214FF2FF7200F02DF94EF6FF722846EF
S1131FA0422100F027F90421284600F019F910F025
S1131FB0020F4FF03C0128464FF4807200F0D280AB
S1131FC000F012F9D5F8D07007BB2B69012B1DD096
S1131FD0284632214FF4006200F0FCF828463221F2
S1131FE04FF4805200F000F9636C01210B446364E8
S1131FF02846C5F8D0103A465E2100F0F5F830685E
S11320004FF0FF33E430AB6109F06CFFD5F8CC300E
S113201043E72846482100F0E3F805F1D807824653
S113202005F580794FF001086FEA080218EA0A0FF3
S113203028464FF0480192B24FEA480807D0BB6ADD
S11320401BB13B6843F002033B6000F0D3F8043754
S11320504F45E9D1D4F88C3030680133C4F88C3062
S113206000F51B7009F03EFF13E72846462100F0F7
S1132070B7F805F1D807824605F580794FF00108D5
S11320806FEA080218EA0A0F28464FF0460192B296
S11320904FEA480807D0BB6A1BB13B6843F0010311
S11320A03B6000F0A7F804374F45E9D1D4F88C30F1
S11320B030680133C4F88C3000F51B7009F012FF4E
S11320C0D5F8C830E2E628464A2100F089F805F13F
S11320D0D807824605F580794FF001086FEA0802B7
S11320E018EA0A0F28464FF04A0192B24FEA48080C
S11320F007D0BB6A1BB13B6843F004033B6000F0AC
S113210079F804374F45E9D1D4F88C30306801337D
S1132110C4F88C3000F51B7009F0E4FED5F8C83023
S1132120B1E62846422147F6FF7200F063F8012029
S11321300146432209F0D0FCA0E6284640214DF692
S1132140FF7200F057F8D4F88C3030680133C4F8CB
S11321508C3000F51B7009F0C5FED5F8CC008AE67A
S1132160EC65002000F036F82CE72B69012B7FF496
S11321700BAF284632214FF4805200F02BF8322165
S113218028464FF4006200F02FF805F1FC0305F532
S1132190927153F8042F2AB153F8282C42F080028C
S11321A043F8282C8B42F4D1D4F88C3030680133B6
S11321B0C4F88C3000F51B7009F094FE636C306831
S11321C0002201336364E430C5F8D0202A6109F0A9
S11321D089FED9E640680B5A23EA02020A52704784
S11321E04368C85A704700BF40680B5A1A430A52E2
S11321F0704700BF4368CA52704700BF70B4104CA8
S11322002368020A9A4216D26568C0B200F1100629
S1132210012355F8225003FA06F62E420BD069B179
S113222000EB0210A36853F82030C3F340030020EE
S11322300B7070BC7047032070BC70471846FBE7F6
S113224040090020084B1A68000A904201D3032079
S1132250704731B1DA684301043200209B580B8087
S113226070470120704700BF40090020084B1A68DE
S1132270000A904201D30320704739B1DA68430160
S1132280043200209B581B0C0B80704701207047C0
S113229040090020144A1368F0B4040A9C421DD279
S11322A05768C5B205F11006012357F8244003FA14
S11322B006F6264212D0A1B1D468000A04344001C3
S11322C003FA05F2005992B202EA1040904213BF99
S11322D0002000200B700870F0BC70470320F0BC95
S11322E070471846FBE700BF400900200C4B10B4B0
S11322F01C68000AA04200D21AB903205DF8044BFE
S11323007047DB685DF8044B083303EB401022EAA6
S11323100103114041EA034141600020704700BFBE
S113232040090020134BF0B41C68020AA2420AD2EE
S11323305F68C5B205F11006012457F8222004FA9B
S113234006F6164202D10320F0BC70470129FAD8E0
S113235000F47F400AD0AC4024040021DB68083339
S113236003EBD0000C4344600020EDE7A94089B2A0
S11323700024F3E74009002040B101230421022294
S113238001704370C3708270002070470120704751
S1132390012901D9032070472C4BF0B51C68020AAF
S11323A0A2424ED25D68C0B200F11006012455F875
S11323B02250B4402C4244D000EB02109C681D69AA
S11323C054F8203000293ED043F00401204E0E4042
S11323D0EFF31087012383F310881E4B1A8892B2FF
S11323E022B94FF0400EEA7085F803E01A880132F2
S11323F092B21A8087F31088CF0354F8202007D5AF
S1132400154F22F480320F4044F8202044F8207005
S113241044F82060EFF31081012282F310881A88B7
S11324200C4892B21AB10288013A92B202801B8817
S11324309BB213B98022EB70EA7081F310880020FC
S1132440F0BD0320F0BD23F00401BFE740090020E4
S1132450D5FC011F94090020D5FC001F0AB90320F4
S113246070470B4B10B41C68000AA04203D303202E
S11324705DF8044B7047DB6822EA0104400108332D
S11324800A4042EA0442C2505DF8044B00207047FF
S1132490400900200AB9032070470D4B70B41C6832
S11324A0000AA04202D3032070BC70474001DD68DB
S11324B02E582B5802EA01043443A4B261EA020202
S11324C01B0C22401B041A432A50002070BC704786
S11324D0400900202DE9F041002839D009681E4D3B
S11324E0002701EBC000B8464FF0010E8C88002392
S11324F035F81320A24218D00133032BF8D1083148
S11325008142F3D1FF43FFB2012005F091FC134A4D
S113251092F8BB3448EA030808EA070782F8BB7458
S11325200120BDE8F04105F053BC0A6802F0B8523E
S1132530B2F1807F05D00EFA03F647EA0602D7B25D
S1132540DAE70EFA03F248EA02085FFA88F8D3E7FA
S11325508046FF27D8E700BF10CA000000E0014012
S113256070B582B002AB002403F8044D054618464A
S11325700E4605F00BFA9DF80430DB0702D4062062
S113258002B070BD202D02D9032002B070BD012E0F
S1132590FAD8084B1A69137805D02B4303F030039B
S11325A020461370ECE703F0300323EA05052046C8
S11325B01570E5E740090020002867D02DE9F84FA1
S11325C04368002B5FD00146804631F8040BFFF7C7
S11325D081FFB8F80030002B52D02D4CDFF8B4E066
S11325E0A146002201204FF0400B4FF0800AD8F89A
S11325F00430DEF8107053F83260DEF8085003EB54
S1132600C20399880B0AC9B201EB0313EFF3108CD0
S113261080F31088218889B211B9F97087F803B062
S11326202188013189B221808CF3108816F4803F0F
S113263055F8231007D021F4803126F4803C45F866
S1132640231045F823C045F82360EFF3108180F38D
S1132650108823889BB22BB1B9F80030013B9BB2A0
S1132660A9F8003023889BB213B9FB7087F803A044
S113267081F310880132B8F8003092B29342B6D890
S11326800020BDE8F88F0120BDE8F88F01207047D5
S11326909409002040090020002832D04368002B10
S11326A02FD0F0B587B006AC002309210193164A58
S11326B004F8141D154ED76802930546039304933A
S11326C0059302A92046B8474FF00A0C029ABDF8B8
S11326D00C308DF804C002A9F2602046059A72609D
S11326E03360B8470122029B8DF8052002A92046D9
S11326F0B360B847029B33612846FFF75DFF07B01C
S1132700F0BD0120704700BFA0CA000040090020AE
S11327102DE9F041304C2268050A954284B0034605
S11327200CD26268C6B20F464FF0010806F11001E0
S113273052F8252008FA01F1114203D1032004B014
S1132740BDE8F08104A902AA41F80C2D4046ADF879
S11327500C300297ADF8008006EB0515FFF7BAFEC2
S11327602069A268EFF3108488F310881B490B8852
S11327709BB213B94026C370C6700B8801339BB259
S11327800B8084F31088FC0352F8253007D523F41A
S1132790803327F4803442F8253042F8254042F84B
S11327A02570EFF31082012383F310880B880B4C00
S11327B09BB25BB90B889BB213B98021C370C17003
S11327C082F31088002004B0BDE8F0812388013B27
S11327D09BB22380EEE700BF40090020940900204B
S11327E0012901D9032070472C4BF0B51C68020A5B
S11327F0A2424ED25D68C0B200F11006012455F821
S11328002250B4402C4244D000EB02109C681D6955
S113281054F8203001293ED023F00101204E0E400F
S1132820EFF31087012383F310881E4B1A8892B2AA
S113283022B94FF0400EEA7085F803E01A8801329D
S113284092B21A8087F31088CF0354F8202007D55A
S1132850154F22F480320F4044F8202044F82070B1
S113286044F82060EFF31081012282F310881A8863
S11328700C4892B21AB10288013A92B202801B88C3
S11328809BB213B98022EB70EA7081F310880020A8
S1132890F0BD0320F0BD43F00101BFE74009002073
S11328A0D5FC011F94090020D5FC001F024658B135
S11328B0064B07491B68002B08BF0B4600205968CC
S11328C003EB810313607047012070475409002013
S11328D0DCCB000088B10A4B1B6863B15A6800F175
S11328E0100103EB820353F8042F40F8042B8842B1
S11328F0F9D1002070471C2070470120704700BFA9
S11329005409002070B36AB3174BF0B51E681EB3A8
S1132910164B07781B68002404E00134B44203F129
S1132920080319D09D79BD42F7D193F805E0458895
S1132930B5EB9E0FF1D1DD7990F801E005F00F0CB5
S1132940F445EAD1B1EB151FE7D19B881470C3F3AA
S1132950090353800020F0BDDF21FF231170538051
S11329600B20F0BD012070478011002034D00000FE
S113297020B1034B1B68036000207047012070479F
S1132980B8CA000070B42A4C216851B1234604F53A
S11329907F70002201E053F8041F83420A44FAD1F5
S11329A01AB100BE1D2070BC7047224D22482A6017
S11329B00368190CB1F5807F02D0002070BC704709
S11329C0196801390331F8D81C495E6A8E42F4D182
S11329D02B6001686368486804EB830301EB8001A2
S11329E001F12300233301214FF47E4503E001323A
S11329F001310138013B25FA02F4E40707D5072A1F
S1132A0010D0082A07D01E780478A642C9D110290C
S1132A10EDD10020D2E70478372CE8D01E78A64206
S1132A20E5D0BEE706781C78A642E0D2B9E700BF3D
S1132A30DCCB0000540900209CB17F405237465340
S1132A4000285ED000295CD08B4B2DE9F0439A68B6
S1132A5090F800C003EB82029478A44537D24FEA81
S1132A601C1802EB88060CF00F073589D2F804E035
S1132A7025FA07F919F0010F29D0072FB67A09D9D9
S1132A8002EB88080CF0070798F80BC00CF00F0C49
S1132A9066442D0ADFF8E481DFF8E4C118F8078002
S1132AA0754F08EA050524091CF80550023402EBA9
S1132AB08402AC1902EB440532F814206C78C2F39A
S1132AC00902250603EB820305D4002B4BD14FF4F6
S1132AD0AF60BDE8F08317F8222045785208FDB1B5
S1132AE04FF0020E012604271C78E40705F1FF3598
S1132AF052D5052A00F2BE80DFE802F0332D211CF6
S1132B001A05012070479A781EFB0264033204EB15
S1132B109202920013441A7854082246002DE3D1FD
S1132B20042A00F2A480DFE802F0636363503B00F0
S1132B300822EFE79A7817FB02629200EAE793F81B
S1132B4004C09C7814FB0CF2D41C0CF1030204EBBB
S1132B5092029200DEE71A79033222F003020C3269
S1132B60D8E70C22D6E74478B4B9DC78C4F303146C
S1132B704C72DC780125C4F303048C728D80408888
S1132B80002843D137F822200EEB02220A609B78FA
S1132B90CB800872C86015E040F27950BDE8F0833C
S1132BA0DA78C2F303124A72DA78C2F303028A7241
S1132BB05878C88000228A800A72CA605B680B60F9
S1132BC08307E9D50020BDE8F083DA78C2F3031265
S1132BD04A72DA78C2F303028A725A78CA809A78FF
S1132BE08A80043304200022CB6008720A60E9E77B
S1132BF0DC78C4F303144C72DC78C4F303048C72E1
S1132C001D79ACB28C804088844203D840F27A505B
S1132C10BDE8F083DC889E68012A04FB00640C6034
S1132C201CD0022A0AD09C785B78002243EA042450
S1132C30CC800A72CA60002CE8D0C3E71C18EA1CD6
S1132C40247BCC809D780D72920805FB002003EB59
S1132C5080030C33CB60002CD8D0B3E703440022AC
S1132C601C7BCC800A72CA60002CCFD0AAE76420F7
S1132C70BDE8F08300224DE7DCCB000018CA000059
S1132C8020CA0000034B04301B6823F820100020E6
S1132C90704700BF98090020034B021D1B680020E9
S1132CA023F82200704700BF98090020034B1A68DC
S1132CB0137863F07F031370002070479809002095
S1132CC0034B1A68137803F07F03137000207047D6
S1132CD09809002020B1034B1B6803600020704753
S1132CE001207047D8CA000060B1012808D1094BFF
S1132CF01B68002040214122187119711A71704714
S1132D0001207047034B1B68402141229870997041
S1132D109A70704798090020002836D070B51C4975
S1132D2086B000230B22019302930393049305932B
S1132D300546CB688DF8042001A802A998470446EB
S1132D4008B106B070BD134E029B336001A804F0B5
S1132D5093FF6B6873B130682346AA6812F8231096
S1132D6002EB83020431528820F821206A6801337F
S1132D709A42F2D828780028E3D0326813780020E9
S1132D8063F07F03137006B070BD0120704700BF6D
S1132D90A0CA00009809002006207047062070474A
S1132DA090B10A4B02689A4201D00720704790F90B
S1132DB00630074AC033116851F8232022F080728C
S1132DC041F82320002070470120704700435444F9
S1132DD09C09002020B1034B1B680360002070474E
S1132DE00120704704CB000010B31A4B02689A42CA
S1132DF001D007207047D9B1174B1B68DB8900222B
S1132E009BB28A7190F9062018041AD4134B53F814
S1132E102230D87800F0C00080280BD0DB8940280D
S1132E209BB28B8013D038B94FF480330B6070475A
S1132E30012070479B898B804FF480730B600020C6
S1132E4070475BB2934204BF01238B71DEE7DBB2B0
S1132E508B80F1E700435444A009002000080020BF
S1132E600346F0B1114A0168914201D0072070472E
S1132E7090F9062012F1210F15D030B40C490D4DF4
S1132E800C68C032002154F8220020F0807044F80D
S1132E90220093F90620084645F82210196030BC38
S1132EA07047012070470B20704700BF0043544413
S1132EB09C0900200008002078B31D4B02689A4248
S1132EC001D00720704790F9063013F1210F26D066
S1132ED0184A52F823209168F9B15168E9B1D178C0
S1132EE001F0300110291CD0202910D0124AC0331F
S1132EF0126852F8231021F4803142F8231052F85A
S1132F00231041F0807142F823100020704791682B
S1132F10890702D152689207E8D0012070470B203C
S1132F2070479168C907F8D45268D007DED5F4E732
S1132F3000435444000800209C0900202DE9F0417E
S1132F4082B001919DF820700092BDF8245070B1B8
S1132F5090F90640294A52F82410C97801F0C001BA
S1132F60802903D0062002B0BDE8F0811DB90120FC
S1132F7002B0BDE8F081002BF9D0214906688E42E9
S1132F8001D00720EFE71F4E1F49D6F800E0D1F823
S1132F900080C0345EF8241021F080714EF82410B3
S1132FA098F8001021F0100188F80010019990F9A8
S1132FB0064019B152F8246001997160009919B161
S1132FC052F824600099B16052F82410CC788D81B5
S1132FD0CB818B7BCB7367F30514CC70FFF76CFF4D
S1132FE098F80030002843F0100314BF1320002089
S1132FF088F8003002B0BDE8F08100BF000800206E
S1133000004354449C090020A009002000283AD021
S1133010002938D00B68002B35D0DA7812F0C00FB5
S113302004D0DB899BB2B3F5807F2CD8514B026866
S11330309A422AD02DE9F0474F4E337886B0804625
S1133040894673B34D4B1D68B9F80460002302E050
S11330500133502B1BD003F1C004DFB255F82420F8
S1133060C2F308029642F3D1454955F8242051F899
S11330702300C2F30802A8F80420002849D008203D
S113308006B0BDE8F0870120704708207047D5F8E6
S11330907C320B20C3F30803A8F8043006B0BDE863
S11330A0F087384901930822CC6802930393049370
S11330B005938DF8042001A80DEB0201A047002818
S11330C0DED1314D029B2B6001A804F005FE0746BA
S11330D008B10A20D4E7DFF8A8A001A804F0CCFDC9
S11330E039464FF4A072504609F046FB2B68C3F8EA
S11330F004A01A7B062542F001021A738DF80450CD
S113310001A802A9A0471D4A029D1560012333703E
S11331109AE7D9F8002000E01032D07810F0C00F00
S11331201CBF907BD073907810F0C00FF4D1164A76
S1133130104D1468227822F01002227099F80600CB
S1133140D9F8002041F8232088F80670C8F8005008
S113315020B9237843F01003237091E74046FFF72A
S1133160ABFE2378002843F0100314BF1320002083
S1133170237085E700435444A40900209C090020DF
S113318000080020A0CA0000A0090020F0B583B008
S113319001910092002851D090F906402A4951F833
S11331A02450EA7812F0C00206D1284A05689542F4
S11331B00CD0072003B0F0BD13B9132003B0F0BD49
S11331C0224E0768B742F4D1802A33D0204D214AD9
S11331D02E681568C03456F8242022F0807246F810
S11331E024202A7822F010022A70019A4AB390F916
S11331F00620019E51F822406660009C1CB151F8E3
S11332002240009EA66051F82210CA7802F0C00243
S1133210802A0DD002B9CB81FFF74EFE2B7800280F
S113322043F0100314BF132000202B7003B0F0BD33
S11332308B81F1E7EA8992B2002AC7D1012003B059
S1133240F0BD90F90620D8E700080020004354445C
S11332509C090020A0090020014B5878704700BF4A
S113326000100840014B587C704700BF0010084014
S1133270014B5871704700BF00100840014B58794A
S1133280704700BF00100840014B9879704700BF99
S113329000100840014BD879704700BF0010084067
S11332A0014B187A704700BF00100840014B587A50
S11332B0704700BF00100840014B987A704700BF68
S11332C000100840014BD87A704700BF0010084036
S11332D0014B187B704700BF00100840014B587B1E
S11332E0704700BF00100840014B987B704700BF37
S11332F000100840014BD87B704700BF0010084005
S1133300014B1870704700BF00100840014B587003
S1133310704700BF00100840014B9870704700BF11
S113332000100840014BD870704700BF00100840DF
S1133330014B9871704700BF00100840014BD871D1
S1133340704700BF00100840014B1872704700BF5F
S113335000100840014B5872704700BF001008402D
S1133360014B9872704700BF00100840014BD8729F
S1133370704700BF00100840014B1873704700BF2E
S113338000100840014B5873704700BF00100840FC
S1133390014B9873704700BF00100840014BD8736D
S11333A0704700BF00100840014B1874704700BFFD
S11333B000100840024B187800F00100704700BF6D
S11333C000100840024B587C00F00700704700BF13
S11333D000100840024B587CC0F30010704700BF37
S11333E000100840024B587CC0F34010704700BFE7
S11333F000100840024B587CC0F38010704700BF97
S113340000100840024B988BC0F3C030704700BFD7
S113341000100840044A537C00F0010023F04003EC
S113342043EA80135374704700100840044A137829
S113343000F0010023F0010318431070704700BF2F
S113344000100840044A137800F0010023F004033C
S113345043EA80031370704700100840044A13784D
S113346000F0010023F0100343EA001313707047C7
S113347000100840044A537C00F0010023F02003AC
S113348043EA4013537470470010084020B1034BC3
S11334901B680360002070470120704720CB0000A8
S11334A02DE9F04F334A344B1788D3F800C083B06A
S11334B0002F3AD0314BDFF8C8901D68DFF8C8E020
S11334C0DFF8C8A0DFF8C8800021BFB20B460E4663
S11334D00A46AB461FE0DA0803F007001CF8022096
S11334E0024112F0010210D139F813003AF81340E6
S11334F0A0421ED2224A013022F8130058F8232099
S11335003BF81300024448F8232001318AB2013306
S113351097429BB209D93EF816009042DBD10131A3
S11335208AB201369742B6B2F5D8002003B0BDE89E
S1133530F08F3BF81350019558F8235048F8232096
S1133540019A15440F4AB4F5FA7F00F10100B5FB66
S1133550F0F522F8115007D9013C2AF813404FF036
S1133560000229F81320D0E71CBF01342AF81340C5
S1133570F5E700BF64000020700F00203C1100201C
S1133580F40E0020FC0D002004000020400B00205D
S1133590B00900203E4A3F4B2DE9F04F1788D3F87D
S11335A000C0002F40D03C4BDFF8F490D3F80080EB
S11335B0DFF8F4E0DFF8F4A00022BFB213461646A9
S11335C01146444626E0D90803F007001CF8011010
S11335D00141C90718D4314839F8131030F8138061
S11335E0414524D22E48013120F8131004EBC301C5
S11335F034F833808888404506D95AF82310C8EB3C
S1133600000001444AF82310013291B201338F4281
S11336109BB209D93EF816008842D4D1013291B246
S113362001368F42B6B2F5D80020BDE8F08F04EB26
S1133630C30034F833B08088584520D8DFF86CB024
S11336405AF823000131B0FBF1F016490025B8F512
S1133650FA7F4BF8235021F8120009D90F4908F1D9
S1133660FF3821F813804FF0000129F81310CBE73D
S1133670F9D00A4908F1010821F81380F3E75AF850
S11336802350CBEB00002844DFF820B0DAE700BF7A
S113369064000020700F002094000020400B0020E4
S11336A0F40E0020FC0D002004000020B0090020CE
S11336B000281ADB0E4B00EB400003EB40008AB2FB
S11336C04388C3F3090313449BB200291BB20ADDE8
S11336D0B3F5806F09DA438812FA83F292B242801A
S11336E0002040B27047002BF5DCFF2040B2704749
S11336F0400E00202DE9F04F3F4BD3F800A085B0D9
S1133700BAF1000F71D03D4BB3F90090B9F1000F3D
S11337106FDD00273A4D3B4EDFF8F4B03A4ADFF84C
S1133720F4C00197B8463C4617E09AF80030DB072E
S11337300AD42888F92822D801301368288033F85D
S1133740173031680B44336001344C4507F10107ED
S113375005F1020506F104060CD03BF91830A3422A
S1133760E3D101344C4508F1010805F1020506F1E5
S11337700406F2D19DF9040005B0BDE8F08F13688A
S1133780DCF8001033F817E0336831F81710013013
S11337907344B3FBF0F31D4833608B4230F81400DC
S11337A006D9591AB1EB900F13D800232B80CBE71D
S11337B0C91AB1EB900FF8D920464FF0FF31CDF87C
S11337C00CC00292FFF774FFDDF80CC00190029A5E
S11337D0EBE720460121CDF80CC00292FFF768FF09
S11337E0029A0190DDF80CC0DFE7504605B0BDE851
S11337F0F08F0020C0E700BF700F0020640000209D
S1133800300F0020B80B00203C110020C80F00200E
S113381004000020800F00202DE9F04F3C4A3D4B6E
S1133820B2F90080D3F800A0B8F1000F83B034DD02
S11338300026394DDFF8F090DFF8F0C03746344603
S113384020E0E31004F007021AF803301341DB0709
S113385011D4324B33F81430F92B4FEA440B20D8EF
S11338602E4A013322F81430DCF800302A6833F889
S1133870163013442B600134A04506F1010605F10E
S113388004050AD039F91730A342DAD10134A0452E
S113389007F1010705F10405F4D1002003B0BDE8E8
S11338A0F08F1F49DCF80020096832F816E031F87F
S11338B036002A6801EBC601013349887244B2FB21
S11338C0F3F32B60174B88423BF8033008D9401AB6
S11338D0B0EB930F12DC114A002322F80B30CAE735
S11338E0081AB0EB930FF6DD20464FF0FF31CDF808
S11338F004C0FFF7DDFEDDF804C0ECE7204601213B
S1133900CDF804C0FFF7D4FEDDF804C0E3E700BF40
S113391064000020700F0020B80B0020300F00203E
S113392094000020C80F0020040000203C11002057
S113393002880B8892B2C3F30B1313449BB2A3EB1C
S113394012139BB203800020704700BF2DE9F04F93
S1133950BB4ABC4B12881B68BB488BB05400002187
S1133960049308F009FF22460021B84808F004FF38
S113397022460021B64808F0FFFE22460021B54841
S113398008F0FAFE0120FFF769FD0120FFF74EFD64
S113399009E0FFF737FD50B9FFF714FD60B1FFF7F9
S11339A009FD012808D1FFF725FD0028F1D04FF0CB
S11339B0FF300BB0BDE8F08F0023DFF8B8B20593F9
S11339C0FFF718FD0028F2D1FFF71CFD064600287A
S11339D0EDD1FFF7F7FC9A4BB3F90050F0B19E4BD1
S11339E093F900402C1BA64204DA059A41F26F7346
S11339F09A42E5D9002DAC46D8BF0020D9DD00237A
S1133A00964A184612F9011F032908BF013003F131
S1133A10010308BFC0B29C45F4DCCAE7002DD8BF3F
S1133A20064640F3A680049A8D4F0290914602F117
S1133A300208043209F1060A4D4606460390019233
S1133A408146884B029A33F91230B34200F0168152
S1133A507D4B13F90930032BA9D8DFE813F0D50007
S1133A609500470004003868DBF800304FEAC904C9
S1133A702946204498473868DBF8003001992044EF
S1133A80043098473868DBF800302044414602305F
S1133A9098473868DBF80030204451460630984790
S1133AA03A68DFF8D4E132F839003EF816E0131929
S1133AB05988884240F2E980411AB1EB9E0F00F325
S1133AC019819B88834240F2F08067490968181A7B
S1133AD021F819000399604A594B92F90040B3F94F
S1133AE000300131CAB203921C1B2DE03868DBF8A8
S1133AF000304FEAC90210442946144698473868F2
S1133B00DBF8003001990694204404309847069C61
S1133B103868DBF800302044414602309847386862
S1133B20DBF8003020440630514698474F4B4A4A50
S1133B30B3F9003092F90040002B414BB3F9003047
S1133B40A3EB040440F3F280039AA24280F276814C
S1133B5009F10109019A013608329E4205F108056E
S1133B6008F1080801920AF1080AFFF66AAF039EF9
S1133B701D46394B93F900402C1BB44200F361817C
S1133B80059B013305932EE73868DBF800304FEAD4
S1133B90C9042044294698473868DBF80030019965
S1133BA02044043098473868DBF80030204441460C
S1133BB0023098473868DBF800302044514606301C
S1133BC09847386830F839304FF6EF718B42044427
S1133BD000F29A8061889942254940F2218106EBDE
S1133BE0460001EB40014888C0F30900002862D177
S1133BF0194A134B92F90040B3F90030124A0321D9
S1133C001C1B02F809109FE7396838F8023C21F8B8
S1133C10393001EBC9016B884B80B8F802308B80D6
S1133C200D4A074B92F90040B8F80400B3F900308C
S1133C30054AC88001211C1B02F8091084E700BF53
S1133C40640000204C110020600D002004100020AE
S1133C50840A0020880F0020401100205F0D0020FE
S1133C6094000020040000203C1100208C0000205F
S1133C70400E0020380E0020C80F002013460133E8
S1133C800293894BB3F9003064E7091AB1EB9E0F34
S1133C907FF717AF30464FF0FF3107920693FFF7D7
S1133CA007FD079A069B105B0BE7804B1B680021FE
S1133CB023F819100EE749887D487E4CC1F30901A9
S1133CC020F8191030466FF0010124F81930FFF77D
S1133CD0EFFC794A744B794992F90040B3F900300A
S1133CE0774A40F2FF3021F8190002211C1B02F828
S1133CF0091029E73046012107920693FFF7D8FC03
S1133D00079A069B105BDCE630462021FFF7D0FCC7
S1133D10694A654B92F90040B3F90030421C7FF4C4
S1133D20E3AE674A1C1B02F809000DE7611E8945D2
S1133D3002DB644A10211180396807915D49069AB3
S1133D4031F819E00799885A08901046089A964560
S1133D5098BF089A08448CBFC2EB0E01CEEB020157
S1133D608AB24FEA460E584909900EEB060C01EB55
S1133D704C0C4F49BCF802C031F819105248CCF32E
S1133D80090CB6448C4500EB4E0E4A488CBFC1EB7F
S1133D900C01CCEB0101BDF820C020F819C0BEF81D
S1133DA0020089B2B2FBF1F1414AC0F3090022F8E2
S1133DB01900069A079830F802C0099A50883F4AB9
S1133DC0002908BF0121844518D932F819E0C0EB55
S1133DD00C0080B2B0FBF1F1714528BF714622F8A6
S1133DE01910C1B10229069345D93848A0FB013105
S1133DF049083046FFF75CFC069BA5E6CCEB0000C7
S1133E0032F819C080B2B0FBF1F1614528BF6146B8
S1133E1022F8191059BB2A4A032102F8091093E623
S1133E2006EB460001EB40012248498820F819308E
S1133E301F4CC1F309033046022146E71D46039E89
S1133E409EE60120FFF70AFB0120FFF7EFFA1D4B66
S1133E501B881AB2002A1EDD134AB2F90050164A12
S1133E6092F90040174A013B13802C1B88E6022973
S1133E70069306D8494209B23046FFF719FC069B5F
S1133E8062E61248A0FB0131490849423046FFF777
S1133E900FFC069B58E6044BB3F90050064B93F90C
S1133EA000402C1B6CE600BF640000203C11002085
S1133EB004100020880F002040110020840A0020F4
S1133EC0600D00208C000020400E0020ABAAAAAA9E
S1133ED02DE9F04FDFF8D0B2A74BBBF800201B68E8
S1133EE0A64887B054000021009308F045FC224600
S1133EF00021A34808F040FC22460021A14808F014
S1133F003BFC22460021A04808F036FC0120FFF7C4
S1133F10A5FA0120FFF78AFA09E0FFF773FA50B90E
S1133F20FFF750FA60B1FFF745FA012808D1FFF70F
S1133F3061FA0028F1D04FF0FF3007B0BDE8F08FF0
S1133F400023DFF868A20293FFF754FA0028F2D1A5
S1133F50FFF758FA04460028EDD1FFF733FAE0B131
S1133F608A4B93F900202546BBF900309A1AAA42DD
S1133F7040F30682029941F26F739942E4D97F4972
S1133F80013A8B1800204A1E12F9011F032904BFAD
S1133F900130C0B29A42F7D1CFE7BBF90040002C00
S1133FA040F3EC81009B7A4D01900646844680469E
S1133FB01F4603F10209774B33F91C30434500F0E7
S1133FC0A2806E4B9B57032BB5D8DFE803F08C5DC2
S1133FD02D022868704CDAF80030CDF810C0720059
S1133FE01044394603929847039A2068DAF800305F
S1133FF010444946984723682A6833F8163032F843
S113400016206649DDF810C031F818109A427FD99D
S1134010D31AB3EB910F00F38E80019ABBF90030F1
S11340200132D2B2019219E02868DAF80030CDF8F2
S11340300CC07400394620449847574B1868DAF886
S11340400030204449469847554BDDF80CC0B3F97D
S11340500030002BBBF9003040F3AA80013608F190
S11340600108984507F1040709F10409A3DB019D40
S11340701C46464B93F90020A41AA542C0F2458180
S1134080029B013302936FE72868434CDAF800304F
S1134090CDF810C072001044394603929847039A31
S11340A02068DAF800301044494698472B68DDF858
S11340B010C033F816304FF6EF72934244D822689A
S11340C032F81620934231D2364A08EB480102EB0B
S11340D041025188C1F30901002940F0E680274AD2
S11340E00323935524E02A6839F8021C2A4B22F84A
S11340F016101B687A8823F81620204A012393554A
S1134100BBF90030AAE70CF1010CBBF90030A6E7BB
S11341109B1AB3EB910F80DD40464FF0FF31CDF891
S11341200CC0FFF7C5FADDF80CC076E700F2DA80C0
S1134130BBF9003092E740460121CDF80CC0FFF7EF
S1134140B7FADDF80CC068E7CDF80CC0FFF74AF900
S1134150DDF80CC0002840F0EA8040462021CDF86C
S11341600CC0FFF7A5FA431CDDF80CC0E0D1034BEB
S11341709855BBF9003071E74C110020640A002007
S1134180800D0020280A00207C0B00204011002014
S11341903C11002004000020800F0020C80F0020E4
S11341A08C000020400E002064000020380E002007
S11341B0784A92F900209A1A013A964202DB76492B
S11341C010220A804FEA4802104605922A68734971
S11341D032F804E00392724A31F81610ADF8101068
S11341E032F8161002466F48424400EB420204982B
S11341F05288C2F30902121A12B2C1EB0E01002A4C
S113420009B2B8BF52420029B8BF4942C2F30E02F4
S1134210C1F30E01002A45D012B20492059A424419
S11342201046604A02EB40005D4A22F816E0049A08
S113423091FBF2F241885C48D0F800E05748C1F3A2
S1134240090120F8161003993EF80400095B081AC6
S113425000B2002A80EAE07108BF0122A1EBE071FC
S113426000285248C1F30E0130F8164091FBF2F2D7
S113427091B262DDA242C8BFA1B220F8161069B1A2
S113428009B203290493CDF80CC070DD89104046AF
S1134290FFF70EFADDF80CC0049BDFE64449032265
S11342A08A55DBE601220492B8E752883C4C3B492C
S11342B024F81630C2F3090221F81620CDF80CC0F8
S11342C040466FF00101FFF7F3F93849BBF90030BC
S11342D0DDF80CC040F2FF3021F816003449022208
S11342E08A55BBE62F492D4ACDF80CC008EB48008F
S11342F001EB40012A48498820F81630C1F309032C
S11343004046022122F81630DDE70120FFF7A6F827
S11343100120FFF78BF8204B1B881AB2002A35DDE9
S11343201C4A1D4992F90020013B0B80A8E600209D
S1134330FFF7A0F8DDF80CC00FE7A242C8BFA1B296
S11343408CB220F816400029A8D00AB2032A04939C
S1134350CDF80CC0C4F1000107DC09B24046FFF7F8
S1134360A7F9DDF80CC0049B78E641F38D014046C3
S1134370FFF79EF9DDF80CC0049B6FE6054678E66E
S1134380002AD8BF00203FF7FAADD6E5014B93F9D8
S1134390002075E6401100208C000020800D0020D4
S11343A07C0B0020400E0020800F0020280A0020F3
S11343B0640A002078B12DE9F04FAE4DAE4A2B7857
S11343C01668032B89B008D02B78012B05D0072061
S11343D009B0BDE8F08F022070470446FEF7F2FFF3
S11343E018B1082009B0BDE8F08FFFF703F80128E1
S11343F002D148F22000EBE7FEF7F4FF012802D1D6
S113440048F21000E4E7FEF7FDFF012802D148F26C
S11344104000DDE7FEF7DEFF0128E2D0974B1B6882
S113442013B1974A10689847964BB3F90030002BA4
S11344307BD0954B01944FF0000BDFF87882934AC0
S11344400096D9465C469C4647E02B785BB2012B2C
S11344504AD0032B35D18A4B8D4E19683068D8F871
S11344600030CDF80CC04FEACB0701EBC90A384441
S11344705146029298473168D8F80030C819043080
S11344800AF1040198473168D8F80030C81902309D
S11344900AF1020198473168D8F80030C81906308B
S11344A00AF1060198473368029A33F83B00DDF8B5
S11344B00CC01F44BB88834230D911681B1A21F8F1
S11344C01B300BF1010B1FFA8BFB6E4B09F1010939
S11344D01B881FFA89F94B4525D93CF814304B4504
S11344E0B3D10134A4B2F0E7654B10681F68D8F863
S11344F00030CDF80CC007EB89074FEA4B0639466C
S11345003044029298476349D8F800300868B91CCF
S113451030449847029ADDF80CC0D2E713680021B2
S113452023F81B10CDE7009E019C5B4B1B6813B165
S1134530534A10689847594A138819B2002903DD71
S1134540013B1380002043E7554B1B6813B14C4AD1
S1134550106898474B4B1F88002F00F0B3804B4BDB
S1134560DFF854A11B680393474B05930020BBB2AB
S11345700493DFF848B10090014603468146804623
S1134580019445E02A7852B2012A4FEAD10301F09E
S113459007075AD0032A56D1424A039C32F810E046
S11345A0414A34F811C032F81020C2EB0E0294458F
S11345B039DA3E4ACCEB0E0E22F811E016F803E08D
S11345C00122BA404EEA0202D2B2F254019A527D5A
S11345D002F04102412A334403D1AAF80090CBF8F7
S11345E000901B780122BA4013409A4208BF08F198
S11345F0010301F1010108BF1FFA83F889B20130F8
S1134600049A83B293420AF1020A0BF1040B57D2C3
S1134610059A009F32F817209A42B3D13B460133E2
S11346209BB20093EBE7224C34F810E072449445BB
S113463009DD1E4A22F811900124F25C04FA07FEF7
S113464022EA0E02F2543344CBE7164C34F810C07D
S1134650154C34F810E0039C34F811400294E644FD
S1134660744543DDCCEB040C104C24F811C016F84F
S113467003E0A6E79A000020700F0020FC0A002047
S11346804C11002064000020040000203C11002094
S113469094000020800F00206C0F00208C0000206C
S11346A034110020FC0D0020C80F0020C00A002097
S11346B0000B0020380E0020300F0020B80B002023
S11346C0019C4746A36933B10121E2698DF81810B2
S11346D0079206A89847617D01F02103212B22D07F
S11346E001F04101412914D0002071E62A4C34F82C
S11346F010C0029CCCEB0E0E7445A4DA274C24F8AF
S1134700119016F803E0BA402EEA0202F254334440
S113471067E7234B1B68002BE6D0002FE4D1384613
S11347209847384654E67FB31E4ADFF88C80B2F8C7
S11347300090002318461A461C464FF0010C4FF413
S1134740FA7E12E016F80B5005EA0A05AA4508D1CC
S1134750154D25F81340154D25F813E0144D45F873
S1134760234001339BB2013292B203F007054A455C
S11347704FEAD30B0CFA05FAB2D038F81050954230
S1134780E0D1013080B2EEE70A4B1B68002BA7D0C2
S113479038469847617DA3E7000B0020C00A00203B
S11347A06C0C002064000020F40E0020400B00205C
S11347B0B00900203C0B0020040000202DE9F04F3C
S11347C089B003690593804689460FE0FEF7F2FD40
S11347D001280FD1FEF706FE01280BD0FEF70AFED2
S11347E0012807D0FEF70EFE012803D0FEF7EAFDEC
S11347F00028EBD1814A042300201370FEF716FE33
S11348000120FEF72BFE7E4A002417231569069427
S113481007AA8DF818300221079406A8A84707AA0A
S1134820012106A89DF81CB0A84707AA214606A89E
S11348309DF81CA0A8479DF81C204FFA8BFC4FFA4A
S11348408AF153B24FEA5C174E095D09BF00B60006
S1134850AD0007F1604706F1604605F1604502F0DE
S11348601F02019307F56147012306F5614605F52B
S113487061450BF01F0B0AF01F0A03FA0BFB03FA46
S11348800AFA93406046C7F880B0C6F880A0C5F81D
S11348908030CDF810C00393029103F0F1F902992E
S11348A0084603F0EDF9019803F0EAF9554A039B31
S11348B01268DDF810C0C7F880B1C6F880A1C5F849
S11348C0803152F83C3002991C6052F831301C603F
S11348D0019B52F8333019F0040F1C604ED119F0CB
S11348E0010F47D119F0080F40D119F0020F17D06A
S11348F0059B002B75D0D86A28B1434B43491A88CD
S1134900520007F09FFE059B186A48B13E4B404990
S11349101A8802EB4202520007F094FE002400E0E1
S11349200024D8F80030DB6963B1D8F8040008B17A
S113493098470446D8F8080020B1D8F80030DB695D
S1134940984704463349344A344E354D002306A86B
S113495040272B700B601370378003F0F1F9274A5E
S1134960FF232046137009B0BDE8F08F06A803F0BA
S11349707FF9BAE70120FEF765FDB3E72046FEF7AD
S1134980BFFC2046FEF7C2FC2046FEF7C5FC2046CD
S1134990FEF70AFD2046FEF7C5FC2046FEF7C8FCDC
S11349A0204D2046FEF7CAFC2046FEF7CDFC2B79AD
S11349B0032B18D80020FEF7D9FC0020FEF7DCFCFE
S11349C00020FEF7DFFC6B79164C032B87D90020FF
S11349D0FEF7DEFC6379042B81D90020FEF7DEFCB0
S11349E07DE702249DE72046FEF7B4FC2B79042BD7
S11349F0E0D92046FEF7B4FCDCE700BF9A000020B3
S1134A00A0CA000034D0000064000020FC0D002087
S1134A10400E0020700F0020840F00208C00002026
S1134A20F80D0020A80900200B4B1A78032A10B5B2
S1134A3004D01B78012B01D0072010BDFEF7C2FC67
S1134A40044608B1082010BD0120FEF707FD01202F
S1134A50FEF7ECFC204610BD9A00002000286CD024
S1134A6000296AD08B68002B67D05A6A002A64D068
S1134A709A6A002A61D0DA6A002A5ED01A6A002A89
S1134A805BD0CA68002A58D02DE9F04F0C68A7B053
S1134A90002C54D02268002A51D0A568002D4ED095
S1134AA02A68002A4BD06268002A48D04C68002C3F
S1134AB045D02268002A42D0A668002E3FD0326832
S1134AC0002A3CD06268002A39D0B54237D15A78DE
S1134AD09209032A03D05B789B09012B2FD10B7E0B
S1134AE00BB1612B2BD14B7E042B01D0012B26D192
S1134AF003900546A14CA248029102F039FF00231D
S1134B00172215931793189319931A938DF8542019
S1134B10E36815A817A9984790B9179B2B62994B7E
S1134B20D3E900AB5AEA0B032DD19DF864E01A9B3C
S1134B30BEF1030F07D9642002E002207047012070
S1134B4027B0BDE8F08FBEF1000F1CD0A3F1040C18
S1134B5003465CF8042F1901120CA1F12005C1F1E0
S1134B60200002FA05F922FA00F0013349EA0009AB
S1134B7002FA01F873454AEA080A4BEA090BE8D13C
S1134B80804BC3E900AB0DF1980A00254AF8405D5B
S1134B902469524615A80221A0479DF858300B936A
S1134BA05BB20693213301D10B20C9E715A801217B
S1134BB05246A0479DF858300C934FFA83F919F1E7
S1134BC0210FF1D02946524615A8A0479DF8583028
S1134BD00D935BB207932133E6D015A803F07CF85C
S1134BE0082800F0B7800699674A029B12689B7EEA
S1134BF00029C0F28E81069901F160411B0101F583
S1134C006141DBB281F80033069B039952F83330DB
S1134C101960029BB9F1000FDB7EC0F2718109F1CA
S1134C2060411B0101F56141DBB281F8003352F8A8
S1134C303930039919600799029B00291B7FC0F240
S1134C409380079901F160411B0101F56141DBB2D9
S1134C5081F80033079B029C52F83330039D627E37
S1134C601D60D4F808B0216820699BF80130896878
S1134C700E90207ED4F80CA008902960AA759B0998
S1134C8015A80F9302F0F8FF9BF80A309BF809501F
S1134C909BF808E09BF807C09BF806809BF80F4040
S1134CA09BF80E60190E180240EA0500CDE90001D8
S1134CB02202230E42EA0604DDE90067390241EAD2
S1134CC01661300240EA0E009BF80D601D46CDE9E6
S1134CD000012B02220243EA146342EA0604DDE9DE
S1134CE000671D463902300241EA16612B029BF827
S1134CF00C60244D43EA1463220242EA060216467B
S1134D001F46CDE90067009E40EA0C04090241EA0F
S1134D10146120021B029BF80B4043EA1663320223
S1134D2042EA0402D5E9006740EA080014461D4639
S1134D3002460B4622432B4322EA060623EA0707D0
S1134D4032463B461343CDE90001CDE9044503D087
S1134D500420F5E60A20F3E6094C9BF8003022789B
S1134D60934315D00520EBE60D98084900F00F0099
S1134D701B010144DBB20B766CE700BFA0CA000044
S1134D80A8090020780F002034D00000FCEC00E0DB
S1134D909BF8012063789A43E4D19BF80100184002
S1134DA0FEF7B4FA9BF80200FEF7B6FA9BF810007F
S1134DB0FEF7FAFA9BF80300FEF7B4FA9BF8060034
S1134DC0FEF7B6FA9BF80700FEF7B8FA9BF808005E
S1134DD0FEF7BAFA2379032B03D99BF80900FEF7EF
S1134DE0B9FA2379042B03D99BF80A00FEF7B8FA21
S1134DF09BF80B00FEF7BAFA9BF80C00FEF7BCFA1E
S1134E009BF80D00FEF7BEFA6379032B03D99BF8D8
S1134E100E00FEF7BDFA6379042B03D99BF80F004B
S1134E20FEF7BCFA23789BF800001840FEF768FAF6
S1134E304FF0000E7346F4464FF0FF08CDF824B04F
S1134E40CDF828A0DDE90067C3F120053A46AA4061
S1134E5026FA03FA4AEA020A059E019AA3F12004FB
S1134E60E240AE40059D4AEA020A25FA04F70AF038
S1134E70010400252C43DAB200F08B80049C24FA50
S1134E8003F03043384300F0010400252C434FFA6B
S1134E908EF74FFA8CF60EF101050CF1010473D074
S1134EA0AC4CE2555FFA85FE0133242BCAD1AA4BE0
S1134EB09DF93C7083F800E0A84BDDF824B0DDF8E0
S1134EC028A083F800C0032F2CD0A54A04924FFADF
S1134ED08CF39BB211461AB2002A0B800EDDA14A54
S1134EE00A921E4613809BF840509F4A0FFA86F898
S1134EF015706DB29D4A4545138029DB03201FE6DA
S1134F000C989B4900F00F001B010144DBB20B76A7
S1134F108DE60B98964900F00F001B010144DBB2AB
S1134F200B7671E64FFA8EF34FFA8CFC8C4A04929E
S1134F301CFB03F3C3F30E061680002EDED0894A51
S1134F400A9211465A0047F6FE7313400E80CAE7D0
S1134F50824B93F9003000937F4B4FF0000C93F990
S1134F600040E646AE452ADADBF83C1039B361442A
S1134F700022009B9A4213DA7E4BD05691F90030FE
S1134F8098420DD00132F4E77A4D5FFA84FCAA55B9
S1134F908AE7704A03F80280764A03F8028083E7BE
S1134FA0009B9342AAD0032F37D0734A91F9003063
S1134FB022F81E300EF1010E0CF1020CD2E7012F83
S1134FC000F0AC80032F75D06C4B00936C4C6D4B90
S1134FD0DBF83820002A00F091806B490A604FF01A
S1134FE0000C0993062303FB0CF1684BC44503EB47
S1134FF0010021DADBF82020644B32F801E01FFACB
S11350008EFE23F801E00A440CF1010C518889B2A8
S11350104180928892B28280E4E700235846099145
S1135020A3426FDA4B4913F901B0099991F90110C0
S11350308B4567D00133F3E7099B12934FEA48038A
S11350401A46DBF82C105248099307F0FBFA099A28
S1135050DBF824104F4807F0F5FA761B099ADBF8C1
S113506028104D4807F0EEFA1FFA86FC4FEA4C066A
S1135070324600214948CDF840C007F07DFB009B33
S113508032461868002107F077FB129B32461868F5
S1135090002107F071FB4249DDF840C0C5EB08056B
S11350A000234FF4C872AB4280F2848021F81320AD
S11350B00133F8E7DBF83030314C002B00F0E781A6
S11350C02360002120684FEAC80207F055FBDBF893
S11350D03410002900F0D281284A324B0092C5EBEB
S11350E0080219600846D200002107F045FB254B51
S11350F000982D492D4A01601A6069E7224A2C491B
S113510011606CE7A34283463FF4F8AE02FB04331C
S1135110194AC3F30E0322F81E304BE7DBF8303094
S1135120174C002B00F0A7812360002120684FEA70
S1135130880207F021FBDBF83410002900F08F818E
S11351400E48104B0090C5EB080201EB42021A60B6
S113515001603DE76800002041110020301100206B
S1135160640000209800002040110020000000206E
S1135170FCEC00E040000020040000203C11002072
S11351804C110020800F0020700F0020400E0020E2
S1135190FC0D0020C80F0020000B0020C00A0020D6
S11351A0400B002094000020300C0020BC0D002097
S11351B0441100204FEA8C020021B64807F0DCFAC3
S11351C032460021B44807F0D7FA4FEA880200219A
S11351D0B24807F0D1FA099AB148002107F0CCFA95
S11351E0DAF80430002B00F09681AE4A099213607D
S11351F0AD4BAE4ADAF80C101960DAF80010AC4B7B
S11352001160DAF81820DAF808101960DFF8E8C23B
S1135210DAF81C30002A00F07581CCF80020002B4D
S113522000F0FF80A34A1360069EA34B0E9ACDF8AC
S113523040C030461A6002F023FD484602F020FDCB
S1135240079D284602F01CFD0C980B9972094FEA41
S113525059136E09920000F01F059B000D98B600CB
S113526002F1604203F1604306F160464FF0010829
S113527002F5614203F5614306F5614601F01F0141
S113528000F01F0008FA01F108FA05F508FA00F029
S1135290C2F88011C3F88051C6F880011160029AE7
S11352A01D603060D2F80090536826680399069612
S11352B00A9E1D46D9F80030B6F800E04B607F4ED8
S11352C02B688B601BAA104600211422CDF81CE029
S11352D0B6F800E00D93CDF82CE007F04DFA6E68B7
S11352E00C954FF09801ADF8701030687168B26891
S11352F0F368DFF808E21BAD0FC503463069286088
S1135300BDF81C206E4E6F49596003259A8120A96F
S1135310C3F808E0DD81A3F81E805E610A9E5E6228
S1135320084614220021A3F82E8007F025FAD9F8A4
S11353300460DFF8CCE14FF09801ADF884103068D8
S11353407168B268F36820AD0FC50C9B30692860A2
S11353509A68209B1668069A9A60BDF82C209A8158
S11353600225564AC3F804E00D98DD811BA9A3F871
S11353701E805C615A62A3F82E80B047DDF840C0FD
S113538000287FF4DDAB029B039A1B6850689B687E
S1135390CDF818C020A91B68984700287FF4D0AB2B
S11353A0089BDDF818C003F04103412B27D0DAF83D
S11353B010300BB100209847089B03F02103212BE8
S11353C000F0B580DAF81430002B00F0AA803E4AD1
S11353D01360039C029A089E5269E2612046C4F855
S11353E010B03A493A4B0E9C067501224675846109
S11353F09DF83C0008701A700020FFF7A1BBDCF890
S113540000309847002812DB324B93F90020049BAC
S1135410B3F900309B1A9842C9DA48F28000FFF7CA
S11354208FBB012F17D0234B2B4A1A60FCE6049B39
S1135430DBF820101B882348062202FB03F207F046
S113544001F948F28000FFF77BBB244ACCF8002026
S1135450002B7FF4E7AE174B214A1A60E4E6214A99
S11354602149224B00921046C5EB080201EB42028F
S11354701A600160ACE51E4B236056E6194A1D4BC9
S113548019480092C5EB08021860D2002DE6184BAB
S1135490236016E6B0090020F40E0020B80B0020AB
S11354A0300F0020380E002034110020FC0A0020A8
S11354B06C0F00206C0C0020C40F002000000020A2
S11354C090000020400E00203C0B00209A00002099
S11354D0840F00204011002019380000D13E000044
S11354E0F53600003C11002040100020800F002001
S11354F0700C002094000020481100201210084075
S113550018100840012FA0D0B14ACCF80020002B7D
S11355107FF488AE87E7AF4B09931A46AE4B13600E
S113552066E6032F7BD0AD4BAD4A1A6051E7032FDB
S113553079D0AC48D4F8009000214FF4F07207F011
S11355401BF9FDF73FFF18B1FDF734FF0128F8D030
S1135550DFF89082002508EB050301202360FDF7A6
S11355607DFF0120FDF762FFFDF744FF002840F0B6
S1135570A980FDF747FF002840F0A480FDF732FF23
S1135580002840F09F80FDF71DFF18B1FDF712FFC2
S11355900128E9D07835B5F5F07FDCD1049B914A38
S11355A0B3F800C0002399B2614580F08B8038F8CD
S11355B02350B2F87800B2F8F070B2F868112E18DF
S11355C02096EE1921960D44C619084439442396B1
S11355D024902591229521AE0120002126AD0D4471
S11355E056F8047B55F818EC451CBE4538BF8100BD
S11355F0A8B20628F2D126A801447B4851F8181C09
S1135600490820F8131004320133CCE7DDF818B050
S1135610DDF81CA0DAF81430002B7FF4D8AE6F4B01
S1135620724A1A60D5E6236871480A930021F02271
S113563007F0A2F8FDF7C6FE18B1FDF7BBFE01287E
S1135640F8D0CDF818B0DDF824B0CDF81CA04FF098
S113565000090120FDF702FF0120FDF7E7FEFDF739
S1135660C9FE0028D2D1FDF7CDFE0028CED1FDF72A
S1135670B9FE0028CAD1FDF7A5FE18B1FDF79AFEC0
S11356800128ECD05A4B0A9ECDF82490002409EB53
S11356900302A24627469146049BDFF85C81B3F8D7
S11356A000C00FFA8CF39F424FEAC405314641DA39
S11356B0504B33F91A30BB420CD10AF1010A0137BD
S11356C00836E9E7DAF81430C4F80090002B7FF4C8
S11356D07EAE28E7D8F80000DBF80030284498476D
S11356E0D8F80010DBF8003048190430311D984711
S11356F0D8F80010DBF8003048190230B11C984784
S1135700D8F80010DBF8003048190630B11D98476E
S1135710D8F800301D4433F83410A888431A88425E
S11357209BB24FD9009A29F81730116821F8143028
S11357300134C4E7DDF8249009F13C09B9F1F00F14
S113574087D1DDF818B0DDF81CA02949DFF898806E
S11357501FFA8CFC0024E3B26345BFF45BAF03F192
S11357601E0003F13C0631F8105031F8130031F8F3
S1135770166003F15A02471931F812202097AF1925
S11357802397154487191044324422902592219777
S1135790249521AE0120002226AD154456F8047B41
S11357A055F818EC451CBE4538BF8200E8B20628FF
S11357B0F2D126A80244013452F8182C520828F8D1
S11357C01320C8E7009B1B68002123F81410AFE7DF
S11357D04D390000380E0020313900003C0B002008
S11357E0A1340000285E0020FC0D00209535000047
S11357F0345D002004000020940000202DE9F04FC7
S113580083B00022C84B8DF807201A78032A06D0EB
S11358101A78012A03D0072003B0BDE8F08F0A28C4
S11358200C4611D00C2800F2EE80DFE810F06A007C
S11358307801EC006E00EE006C017501EC00EC00E8
S11358408F0104029A011400FDF7BCFD002800F04A
S1135850F2810820E0E7B54A097892F9007062788D
S11358608DF80610002F8DF807201BDD9DF806200B
S1135870160617D4AE489DF806100278914200F03F
S1135880EC81002209E09DF806502D060AD49DF80B
S11358900660455CAE4200F0E1810132D2B251B201
S11358A0B942F0D10021A34A92F90070002F1ADD09
S11358B09DF80720120616D49F4D9DF807002A78FC
S11358C090424FF0000209D10EE09DF807603606C1
S11358D009D4285C9DF80760864205D00132D2B213
S11358E050B2B842F1D100221B78012B04D017FB2F
S11358F001F141FA82F291B20B0AA170E370002027
S11359008AE71B780B70002086E7DFF83C820A7870
S113591098F805308DF80620042B00F2BF8100248E
S1135920002526462F46032B00F29D81FDF7B8FC87
S11359300021C0B240EA060841EA0709FDF7CEFC9F
S113594000212943C0B220430D0245EA1065040238
S1135950FDF7A0FC4FEA0927002147EA18674FEA40
S11359600826C0B206430F43FDF7B2FC0021C0B2C3
S113597004430D43FDF788FC4FEA05293D024FEA35
S11359800428002149EA146945EA16653402C0B2C4
S11359900D430443FDF796FC9DF806C09DF806E010
S11359A04FFA8CFC4FFA8EFEC0B20021CCF1200AD3
S11359B040EA080041EA090124FA0CF605FA0AFA59
S11359C0ACF12008CEF1200420FA0EF201FA04F41E
S11359D046EA0A0625FA08F8AEF1200021FA00F09A
S11359E046EA08062243024306F00106002756EA67
S11359F0070102F001024FF0000314BF002003204E
S1135A0013433FF409AF032006E7DFF83C810A782B
S1135A1098F805308DF80720042B00F26A810024E1
S1135A20002526462F46032B00F24881FDF738FC5B
S1135A300021C0B240EA060841EA0709FDF74EFC1E
S1135A4000212943C0B220430D0245EA1065040237
S1135A50FDF720FC4FEA0927002147EA18674FEABF
S1135A600826C0B206430F43FDF732FC0021C0B242
S1135A7004430D43FDF708FC4FEA05293D024FEAB4
S1135A800428002149EA146945EA16653402C0B2C3
S1135A900D430443FDF716FC9DF807C09DF807E08D
S1135AA04FFA8CFC4FFA8EFEC0B20021CCF1200AD2
S1135AB040EA080041EA090124FA0CF605FA0AFA58
S1135AC0ACF12008CEF1200420FA0EF201FA04F41D
S1135AD046EA0A0625FA08F8AEF1200021FA00F099
S1135AE046EA08062243024306F00106002756EA66
S1135AF0070102F001024FF0000314BF002003204D
S1135B00134380D088E60D4B0D491A882046520075
S1135B1006F098FD00207FE6084B0A49F5E7074B9D
S1135B201B880B80002077E69A00002030110020AB
S1135B304000002041110020680000206400002083
S1135B40C80F0020000B0020A8090020714B7249E7
S1135B501A8802EB42022046520006F073FD002030
S1135B605AE66E4A097892F9007062788DF8061048
S1135B70002F8DF8072019DD9DF80620160615D490
S1135B8067489DF806100278914269D0002208E027
S1135B909DF806502D0609D49DF80660455CAE427A
S1135BA05FD00132D2B251B2B942F1D100215D4A83
S1135BB092F90070002F1ADD9DF80720120616D402
S1135BC0594D9DF807002A7890424FF0000209D100
S1135BD00EE09DF80760360609D4285C9DF807603E
S1135BE0864205D00132D2B250B2B842F1D100227D
S1135BF01B78012B04D017FB01F141FA82F291B218
S1135C004A4B1B785AB2002A20DD581E484BC0B2BA
S1135C1003EB40000A46023B0DB202E08AB2834223
S1135C2015D033F9021F8D4202F1FF31F6DC08BFB3
S1135C304FF6FF72F3E7374B37481A8802EB4202FC
S1135C402146520006F0FEFC0020E5E50A46C2F3B8
S1135C500723A270E3700020DEE5002189B222E66A
S1135C60002189B2A3E7FDF721FB0021C0B240EA7D
S1135C70060841EA0709FDF737FB0021C0B241EAF3
S1135C80050340EA04024FEA09271D0247EA1867A0
S1135C9045EA12654FEA0826140247E6FDF70CFBB5
S1135CA05FFA80FAFDF726FBC0B24FEA1A67050EC9
S1135CB04FEA0A2698F80530040234E6FDF7F6FAAE
S1135CC00021C0B240EA060841EA0709FDF70CFBCF
S1135CD00021C0B241EA050340EA04024FEA092761
S1135CE01D0247EA186745EA12654FEA08261402BE
S1135CF09CE6FDF7E1FA5FFA80FAFDF7FBFAC0B221
S1135D004FEA1A67050E4FEA0A2698F8053004028E
S1135D1089E600BF64000020400E002030110020FE
S1135D2040000020411100206800002040110020A4
S1135D30040000202DE9F04FBD4E96F800E083B03A
S1135D40BEF1030FBDF8308006D03778012F03D0A1
S1135D50072003B0BDE8F08F00B3F9B1042A1C4654
S1135D6015460F4621D01DD9802A1ED0902A1CD05A
S1135D70082A1AD0102D00F000813AD9822D00F0A3
S1135D80ED8040F28180882D00F0FE80902D00F09F
S1135D909881842D00F0C0800320DAE7022003B04C
S1135DA0BDE8F08F531E012BE4D8002CF6D0B8F1D7
S1135DB0000FDFD008F1FF391FFA89F909F1010951
S1135DC004EB4909A24603E00AF1020ACA45D1D00C
S1135DD003205146FFF712FD0028BAD13378032B74
S1135DE0F2D104200AF10101FFF708FD0028EBD0ED
S1135DF0AFE7022D00F02E8156D8002D00F09A80D6
S1135E00012DC9D1B8F1000F4CD008F1FF381FFAA9
S1135E1088F804EB4808DFF8389208F103080134E5
S1135E2001AD4FF0000A07E032F823303B80023422
S1135E30444507F1020735D014F8012C23788DF876
S1135E4004200C2029468DF805308DF806A08DF825
S1135E5007A0FFF7D3FC9DF807209DF8063043EA1E
S1135E6002231BB200287FF474AF591C1AD0327875
S1135E70032AD9F80020D7D102EBC30132F833202A
S1135E808B889B1A3B80D2E7802D00F08680812D81
S1135E9082D13378664A012B00F07F811378032B7B
S1135EA000F08481002054E7042D00F04181082D86
S1135EB07FF472AFB8F1000FF4D008F1FF36B6B238
S1135EC007EB4606DFF884810134023F01AD4FF051
S1135ED0000907E0591CE5D038F8133027F8023FD1
S1135EE0B742DFD014F8012C23788DF804200C205D
S1135EF029468DF805308DF806908DF80790FFF748
S1135F007DFC9DF807209DF8063043EA0223023405
S1135F101BB20028DED01CE7464B474A1B8892F987
S1135F20002046499A1A92B23846520006F08AFB7B
S1135F3000200EE7404A3F4B92F900101B8889B2BB
S1135F408B42AFD05B1A3E4899B2EB080268083521
S1135F50ADB2D25CFA548D42F7D3A3E7354B364A3F
S1135F601B8892F90020374909689A1A92B2384678
S1135F70520006F067FB0020EBE62E4B2E4A1B88EE
S1135F8092F900203049EFE72A4B30491A88384605
S1135F90520006F057FB0020DBE6B8F1000F81D079
S1135FA008F1FF36B6B24FF00009DFF894800136ED
S1135FB0CB46A24601AD11E001333FF473AFD8F8EC
S1135FC0003013F80E300B41D80704D517F80C3005
S1135FD01A4307F80C20B1453FF464AF14F81920B4
S1135FE09AF801308DF8042029460B208DF80530ED
S1135FF08DF806B08DF807B0FFF700FC9DF8071088
S11360009DF8063043EA012399B21FFA89FC012264
S113601002FA09F24FEAD10E0AF1020A01F007016D
S11360201BB24FEADC0C09F101090028C4D090E648
S11360309A0000206400002040110020C00A0020C3
S1136040700F00203C110020800F0020FC0D002068
